{
  "_format": "hh-sol-artifact-1",
  "contractName": "StrategicPoolPairERC4626",
  "sourceName": "contracts/core/StrategicPoolPairERC4626.sol",
  "abi": [
    {
      "inputs": [
        {
          "internalType": "address",
          "name": "token0_erc4626_",
          "type": "address"
        },
        {
          "internalType": "address",
          "name": "token1_erc4626_",
          "type": "address"
        }
      ],
      "stateMutability": "nonpayable",
      "type": "constructor"
    },
    {
      "inputs": [],
      "name": "InvalidShortString",
      "type": "error"
    },
    {
      "inputs": [
        {
          "internalType": "string",
          "name": "str",
          "type": "string"
        }
      ],
      "name": "StringTooLong",
      "type": "error"
    },
    {
      "anonymous": false,
      "inputs": [
        {
          "indexed": true,
          "internalType": "address",
          "name": "owner",
          "type": "address"
        },
        {
          "indexed": true,
          "internalType": "address",
          "name": "spender",
          "type": "address"
        },
        {
          "indexed": false,
          "internalType": "uint256",
          "name": "value",
          "type": "uint256"
        }
      ],
      "name": "Approval",
      "type": "event"
    },
    {
      "anonymous": false,
      "inputs": [
        {
          "indexed": true,
          "internalType": "address",
          "name": "strategy",
          "type": "address"
        },
        {
          "indexed": true,
          "internalType": "address",
          "name": "token",
          "type": "address"
        },
        {
          "indexed": false,
          "internalType": "uint256",
          "name": "amount",
          "type": "uint256"
        }
      ],
      "name": "Deposit",
      "type": "event"
    },
    {
      "anonymous": false,
      "inputs": [
        {
          "indexed": true,
          "internalType": "address",
          "name": "provider",
          "type": "address"
        },
        {
          "indexed": false,
          "internalType": "uint256",
          "name": "token0Amount",
          "type": "uint256"
        },
        {
          "indexed": false,
          "internalType": "uint256",
          "name": "token1Amount",
          "type": "uint256"
        }
      ],
      "name": "DepositLiquidity",
      "type": "event"
    },
    {
      "anonymous": false,
      "inputs": [],
      "name": "EIP712DomainChanged",
      "type": "event"
    },
    {
      "anonymous": false,
      "inputs": [
        {
          "indexed": true,
          "internalType": "uint256",
          "name": "epoch",
          "type": "uint256"
        },
        {
          "indexed": false,
          "internalType": "uint256",
          "name": "token0Yield",
          "type": "uint256"
        },
        {
          "indexed": false,
          "internalType": "uint256",
          "name": "token1Yield",
          "type": "uint256"
        }
      ],
      "name": "EpochYieldHarvest",
      "type": "event"
    },
    {
      "anonymous": false,
      "inputs": [
        {
          "indexed": true,
          "internalType": "address",
          "name": "provider",
          "type": "address"
        },
        {
          "indexed": true,
          "internalType": "address",
          "name": "to",
          "type": "address"
        },
        {
          "indexed": false,
          "internalType": "uint256",
          "name": "token0Amount",
          "type": "uint256"
        },
        {
          "indexed": false,
          "internalType": "uint256",
          "name": "token1Amount",
          "type": "uint256"
        }
      ],
      "name": "RemoveLiquidity",
      "type": "event"
    },
    {
      "anonymous": false,
      "inputs": [],
      "name": "Skim",
      "type": "event"
    },
    {
      "anonymous": false,
      "inputs": [
        {
          "indexed": true,
          "internalType": "address",
          "name": "sender",
          "type": "address"
        },
        {
          "indexed": false,
          "internalType": "uint256",
          "name": "amount0In",
          "type": "uint256"
        },
        {
          "indexed": false,
          "internalType": "uint256",
          "name": "amount1In",
          "type": "uint256"
        },
        {
          "indexed": false,
          "internalType": "uint256",
          "name": "amount0Out",
          "type": "uint256"
        },
        {
          "indexed": false,
          "internalType": "uint256",
          "name": "amount1Out",
          "type": "uint256"
        },
        {
          "indexed": true,
          "internalType": "address",
          "name": "to",
          "type": "address"
        }
      ],
      "name": "Swap",
      "type": "event"
    },
    {
      "anonymous": false,
      "inputs": [
        {
          "indexed": false,
          "internalType": "uint112",
          "name": "reserve0",
          "type": "uint112"
        },
        {
          "indexed": false,
          "internalType": "uint112",
          "name": "reserve1",
          "type": "uint112"
        }
      ],
      "name": "Sync",
      "type": "event"
    },
    {
      "anonymous": false,
      "inputs": [
        {
          "indexed": true,
          "internalType": "address",
          "name": "from",
          "type": "address"
        },
        {
          "indexed": true,
          "internalType": "address",
          "name": "to",
          "type": "address"
        },
        {
          "indexed": false,
          "internalType": "uint256",
          "name": "value",
          "type": "uint256"
        }
      ],
      "name": "Transfer",
      "type": "event"
    },
    {
      "anonymous": false,
      "inputs": [
        {
          "indexed": true,
          "internalType": "address",
          "name": "strategy",
          "type": "address"
        },
        {
          "indexed": true,
          "internalType": "address",
          "name": "token",
          "type": "address"
        },
        {
          "indexed": false,
          "internalType": "uint256",
          "name": "amount",
          "type": "uint256"
        }
      ],
      "name": "Withdraw",
      "type": "event"
    },
    {
      "inputs": [],
      "name": "DOMAIN_SEPARATOR",
      "outputs": [
        {
          "internalType": "bytes32",
          "name": "",
          "type": "bytes32"
        }
      ],
      "stateMutability": "view",
      "type": "function"
    },
    {
      "inputs": [],
      "name": "EPOCH_INTERVAL",
      "outputs": [
        {
          "internalType": "uint256",
          "name": "",
          "type": "uint256"
        }
      ],
      "stateMutability": "view",
      "type": "function"
    },
    {
      "inputs": [],
      "name": "FEE_DENOMINATOR",
      "outputs": [
        {
          "internalType": "uint256",
          "name": "",
          "type": "uint256"
        }
      ],
      "stateMutability": "view",
      "type": "function"
    },
    {
      "inputs": [],
      "name": "MAX_FEE_PERCENT",
      "outputs": [
        {
          "internalType": "uint256",
          "name": "",
          "type": "uint256"
        }
      ],
      "stateMutability": "view",
      "type": "function"
    },
    {
      "inputs": [],
      "name": "MINIMUM_LIQUIDITY",
      "outputs": [
        {
          "internalType": "uint256",
          "name": "",
          "type": "uint256"
        }
      ],
      "stateMutability": "view",
      "type": "function"
    },
    {
      "inputs": [],
      "name": "START_TIME",
      "outputs": [
        {
          "internalType": "uint256",
          "name": "",
          "type": "uint256"
        }
      ],
      "stateMutability": "view",
      "type": "function"
    },
    {
      "inputs": [
        {
          "internalType": "address",
          "name": "owner",
          "type": "address"
        },
        {
          "internalType": "address",
          "name": "spender",
          "type": "address"
        }
      ],
      "name": "allowance",
      "outputs": [
        {
          "internalType": "uint256",
          "name": "",
          "type": "uint256"
        }
      ],
      "stateMutability": "view",
      "type": "function"
    },
    {
      "inputs": [
        {
          "internalType": "address",
          "name": "spender",
          "type": "address"
        },
        {
          "internalType": "uint256",
          "name": "amount",
          "type": "uint256"
        }
      ],
      "name": "approve",
      "outputs": [
        {
          "internalType": "bool",
          "name": "",
          "type": "bool"
        }
      ],
      "stateMutability": "nonpayable",
      "type": "function"
    },
    {
      "inputs": [],
      "name": "assetStrategiesLength",
      "outputs": [
        {
          "internalType": "uint256",
          "name": "length",
          "type": "uint256"
        }
      ],
      "stateMutability": "view",
      "type": "function"
    },
    {
      "inputs": [
        {
          "internalType": "uint256",
          "name": "",
          "type": "uint256"
        }
      ],
      "name": "assetStrategyList",
      "outputs": [
        {
          "internalType": "address",
          "name": "underlying",
          "type": "address"
        },
        {
          "internalType": "address",
          "name": "yield",
          "type": "address"
        }
      ],
      "stateMutability": "view",
      "type": "function"
    },
    {
      "inputs": [
        {
          "internalType": "address",
          "name": "account",
          "type": "address"
        }
      ],
      "name": "balanceOf",
      "outputs": [
        {
          "internalType": "uint256",
          "name": "",
          "type": "uint256"
        }
      ],
      "stateMutability": "view",
      "type": "function"
    },
    {
      "inputs": [],
      "name": "currentEpoch",
      "outputs": [
        {
          "internalType": "uint256",
          "name": "epoch",
          "type": "uint256"
        }
      ],
      "stateMutability": "view",
      "type": "function"
    },
    {
      "inputs": [],
      "name": "decimals",
      "outputs": [
        {
          "internalType": "uint8",
          "name": "",
          "type": "uint8"
        }
      ],
      "stateMutability": "view",
      "type": "function"
    },
    {
      "inputs": [
        {
          "internalType": "address",
          "name": "spender",
          "type": "address"
        },
        {
          "internalType": "uint256",
          "name": "subtractedValue",
          "type": "uint256"
        }
      ],
      "name": "decreaseAllowance",
      "outputs": [
        {
          "internalType": "bool",
          "name": "",
          "type": "bool"
        }
      ],
      "stateMutability": "nonpayable",
      "type": "function"
    },
    {
      "inputs": [
        {
          "internalType": "address",
          "name": "to",
          "type": "address"
        },
        {
          "internalType": "uint256",
          "name": "amount0",
          "type": "uint256"
        },
        {
          "internalType": "uint256",
          "name": "amount1",
          "type": "uint256"
        }
      ],
      "name": "deposit",
      "outputs": [
        {
          "internalType": "uint256",
          "name": "liquidity",
          "type": "uint256"
        }
      ],
      "stateMutability": "nonpayable",
      "type": "function"
    },
    {
      "inputs": [],
      "name": "eip712Domain",
      "outputs": [
        {
          "internalType": "bytes1",
          "name": "fields",
          "type": "bytes1"
        },
        {
          "internalType": "string",
          "name": "name",
          "type": "string"
        },
        {
          "internalType": "string",
          "name": "version",
          "type": "string"
        },
        {
          "internalType": "uint256",
          "name": "chainId",
          "type": "uint256"
        },
        {
          "internalType": "address",
          "name": "verifyingContract",
          "type": "address"
        },
        {
          "internalType": "bytes32",
          "name": "salt",
          "type": "bytes32"
        },
        {
          "internalType": "uint256[]",
          "name": "extensions",
          "type": "uint256[]"
        }
      ],
      "stateMutability": "view",
      "type": "function"
    },
    {
      "inputs": [
        {
          "internalType": "uint256",
          "name": "timestamp",
          "type": "uint256"
        }
      ],
      "name": "epochByTimestamp",
      "outputs": [
        {
          "internalType": "uint256",
          "name": "epoch",
          "type": "uint256"
        }
      ],
      "stateMutability": "view",
      "type": "function"
    },
    {
      "inputs": [
        {
          "internalType": "uint256",
          "name": "",
          "type": "uint256"
        }
      ],
      "name": "epochClaimed",
      "outputs": [
        {
          "internalType": "bool",
          "name": "",
          "type": "bool"
        }
      ],
      "stateMutability": "view",
      "type": "function"
    },
    {
      "inputs": [
        {
          "internalType": "uint256",
          "name": "",
          "type": "uint256"
        }
      ],
      "name": "epochYields",
      "outputs": [
        {
          "internalType": "uint256",
          "name": "token0Yield",
          "type": "uint256"
        },
        {
          "internalType": "uint256",
          "name": "token1Yield",
          "type": "uint256"
        }
      ],
      "stateMutability": "view",
      "type": "function"
    },
    {
      "inputs": [
        {
          "internalType": "uint8",
          "name": "tokenIndex",
          "type": "uint8"
        }
      ],
      "name": "exchangeRate",
      "outputs": [
        {
          "internalType": "uint256",
          "name": "rate",
          "type": "uint256"
        }
      ],
      "stateMutability": "view",
      "type": "function"
    },
    {
      "inputs": [],
      "name": "factory",
      "outputs": [
        {
          "internalType": "address",
          "name": "",
          "type": "address"
        }
      ],
      "stateMutability": "view",
      "type": "function"
    },
    {
      "inputs": [],
      "name": "getReserves",
      "outputs": [
        {
          "internalType": "uint112",
          "name": "_reserve0",
          "type": "uint112"
        },
        {
          "internalType": "uint112",
          "name": "_reserve1",
          "type": "uint112"
        },
        {
          "internalType": "uint16",
          "name": "_token0FeePercent",
          "type": "uint16"
        },
        {
          "internalType": "uint16",
          "name": "_token1FeePercent",
          "type": "uint16"
        }
      ],
      "stateMutability": "view",
      "type": "function"
    },
    {
      "inputs": [],
      "name": "harvestYieldsForRecentEpoch",
      "outputs": [],
      "stateMutability": "nonpayable",
      "type": "function"
    },
    {
      "inputs": [
        {
          "internalType": "address",
          "name": "spender",
          "type": "address"
        },
        {
          "internalType": "uint256",
          "name": "addedValue",
          "type": "uint256"
        }
      ],
      "name": "increaseAllowance",
      "outputs": [
        {
          "internalType": "bool",
          "name": "",
          "type": "bool"
        }
      ],
      "stateMutability": "nonpayable",
      "type": "function"
    },
    {
      "inputs": [
        {
          "internalType": "address",
          "name": "_token0",
          "type": "address"
        },
        {
          "internalType": "address",
          "name": "_token1",
          "type": "address"
        },
        {
          "internalType": "bool",
          "name": "_stableSwapMode",
          "type": "bool"
        }
      ],
      "name": "initialize",
      "outputs": [],
      "stateMutability": "nonpayable",
      "type": "function"
    },
    {
      "inputs": [],
      "name": "initialized",
      "outputs": [
        {
          "internalType": "bool",
          "name": "",
          "type": "bool"
        }
      ],
      "stateMutability": "view",
      "type": "function"
    },
    {
      "inputs": [],
      "name": "kLast",
      "outputs": [
        {
          "internalType": "uint256",
          "name": "",
          "type": "uint256"
        }
      ],
      "stateMutability": "view",
      "type": "function"
    },
    {
      "inputs": [],
      "name": "name",
      "outputs": [
        {
          "internalType": "string",
          "name": "",
          "type": "string"
        }
      ],
      "stateMutability": "view",
      "type": "function"
    },
    {
      "inputs": [
        {
          "internalType": "address",
          "name": "owner",
          "type": "address"
        }
      ],
      "name": "nonces",
      "outputs": [
        {
          "internalType": "uint256",
          "name": "",
          "type": "uint256"
        }
      ],
      "stateMutability": "view",
      "type": "function"
    },
    {
      "inputs": [
        {
          "internalType": "address",
          "name": "owner",
          "type": "address"
        },
        {
          "internalType": "address",
          "name": "spender",
          "type": "address"
        },
        {
          "internalType": "uint256",
          "name": "value",
          "type": "uint256"
        },
        {
          "internalType": "uint256",
          "name": "deadline",
          "type": "uint256"
        },
        {
          "internalType": "uint8",
          "name": "v",
          "type": "uint8"
        },
        {
          "internalType": "bytes32",
          "name": "r",
          "type": "bytes32"
        },
        {
          "internalType": "bytes32",
          "name": "s",
          "type": "bytes32"
        }
      ],
      "name": "permit",
      "outputs": [],
      "stateMutability": "nonpayable",
      "type": "function"
    },
    {
      "inputs": [],
      "name": "precisionMultiplier0",
      "outputs": [
        {
          "internalType": "uint256",
          "name": "",
          "type": "uint256"
        }
      ],
      "stateMutability": "view",
      "type": "function"
    },
    {
      "inputs": [],
      "name": "precisionMultiplier1",
      "outputs": [
        {
          "internalType": "uint256",
          "name": "",
          "type": "uint256"
        }
      ],
      "stateMutability": "view",
      "type": "function"
    },
    {
      "inputs": [
        {
          "internalType": "address",
          "name": "tokenIn",
          "type": "address"
        },
        {
          "internalType": "uint256",
          "name": "amountIn",
          "type": "uint256"
        }
      ],
      "name": "previewAmountOut",
      "outputs": [
        {
          "internalType": "uint256",
          "name": "amountOut",
          "type": "uint256"
        }
      ],
      "stateMutability": "view",
      "type": "function"
    },
    {
      "inputs": [],
      "name": "previewHarvestDetails",
      "outputs": [
        {
          "internalType": "uint112",
          "name": "reserve0",
          "type": "uint112"
        },
        {
          "internalType": "uint256",
          "name": "token0Withdraw",
          "type": "uint256"
        },
        {
          "internalType": "uint256",
          "name": "shares0",
          "type": "uint256"
        },
        {
          "internalType": "uint256",
          "name": "previewShares0",
          "type": "uint256"
        },
        {
          "internalType": "uint112",
          "name": "reserve1",
          "type": "uint112"
        },
        {
          "internalType": "uint256",
          "name": "token1Withdraw",
          "type": "uint256"
        },
        {
          "internalType": "uint256",
          "name": "shares1",
          "type": "uint256"
        },
        {
          "internalType": "uint256",
          "name": "previewShares1",
          "type": "uint256"
        }
      ],
      "stateMutability": "view",
      "type": "function"
    },
    {
      "inputs": [
        {
          "internalType": "uint256",
          "name": "liquidity",
          "type": "uint256"
        }
      ],
      "name": "previewWithdrawLiquidityAmounts",
      "outputs": [
        {
          "internalType": "uint256",
          "name": "amount0",
          "type": "uint256"
        },
        {
          "internalType": "uint256",
          "name": "amount1",
          "type": "uint256"
        }
      ],
      "stateMutability": "view",
      "type": "function"
    },
    {
      "inputs": [
        {
          "internalType": "address",
          "name": "to",
          "type": "address"
        }
      ],
      "name": "skim",
      "outputs": [],
      "stateMutability": "nonpayable",
      "type": "function"
    },
    {
      "inputs": [],
      "name": "stableSwapMode",
      "outputs": [
        {
          "internalType": "bool",
          "name": "",
          "type": "bool"
        }
      ],
      "stateMutability": "view",
      "type": "function"
    },
    {
      "inputs": [
        {
          "internalType": "uint8",
          "name": "tokenIndex",
          "type": "uint8"
        }
      ],
      "name": "strategyDetails",
      "outputs": [
        {
          "internalType": "uint256",
          "name": "assetAmount",
          "type": "uint256"
        },
        {
          "internalType": "uint256",
          "name": "sharesAmount",
          "type": "uint256"
        }
      ],
      "stateMutability": "view",
      "type": "function"
    },
    {
      "inputs": [
        {
          "internalType": "uint8",
          "name": "tokenIndex",
          "type": "uint8"
        }
      ],
      "name": "strategyMetadata",
      "outputs": [
        {
          "internalType": "address",
          "name": "underlying",
          "type": "address"
        },
        {
          "internalType": "uint8",
          "name": "underlyingDecimals",
          "type": "uint8"
        },
        {
          "internalType": "address",
          "name": "yield",
          "type": "address"
        },
        {
          "internalType": "uint8",
          "name": "yieldDecimals",
          "type": "uint8"
        }
      ],
      "stateMutability": "view",
      "type": "function"
    },
    {
      "inputs": [
        {
          "internalType": "uint256",
          "name": "amountIn",
          "type": "uint256"
        },
        {
          "internalType": "address",
          "name": "tokenIn",
          "type": "address"
        },
        {
          "internalType": "address",
          "name": "to",
          "type": "address"
        },
        {
          "internalType": "bytes",
          "name": "data",
          "type": "bytes"
        }
      ],
      "name": "swap",
      "outputs": [],
      "stateMutability": "nonpayable",
      "type": "function"
    },
    {
      "inputs": [],
      "name": "symbol",
      "outputs": [
        {
          "internalType": "string",
          "name": "",
          "type": "string"
        }
      ],
      "stateMutability": "view",
      "type": "function"
    },
    {
      "inputs": [],
      "name": "sync",
      "outputs": [],
      "stateMutability": "nonpayable",
      "type": "function"
    },
    {
      "inputs": [],
      "name": "token0",
      "outputs": [
        {
          "internalType": "address",
          "name": "",
          "type": "address"
        }
      ],
      "stateMutability": "view",
      "type": "function"
    },
    {
      "inputs": [],
      "name": "token0FeePercent",
      "outputs": [
        {
          "internalType": "uint16",
          "name": "",
          "type": "uint16"
        }
      ],
      "stateMutability": "view",
      "type": "function"
    },
    {
      "inputs": [],
      "name": "token1",
      "outputs": [
        {
          "internalType": "address",
          "name": "",
          "type": "address"
        }
      ],
      "stateMutability": "view",
      "type": "function"
    },
    {
      "inputs": [],
      "name": "token1FeePercent",
      "outputs": [
        {
          "internalType": "uint16",
          "name": "",
          "type": "uint16"
        }
      ],
      "stateMutability": "view",
      "type": "function"
    },
    {
      "inputs": [],
      "name": "totalSupply",
      "outputs": [
        {
          "internalType": "uint256",
          "name": "",
          "type": "uint256"
        }
      ],
      "stateMutability": "view",
      "type": "function"
    },
    {
      "inputs": [
        {
          "internalType": "address",
          "name": "to",
          "type": "address"
        },
        {
          "internalType": "uint256",
          "name": "amount",
          "type": "uint256"
        }
      ],
      "name": "transfer",
      "outputs": [
        {
          "internalType": "bool",
          "name": "",
          "type": "bool"
        }
      ],
      "stateMutability": "nonpayable",
      "type": "function"
    },
    {
      "inputs": [
        {
          "internalType": "address",
          "name": "from",
          "type": "address"
        },
        {
          "internalType": "address",
          "name": "to",
          "type": "address"
        },
        {
          "internalType": "uint256",
          "name": "amount",
          "type": "uint256"
        }
      ],
      "name": "transferFrom",
      "outputs": [
        {
          "internalType": "bool",
          "name": "",
          "type": "bool"
        }
      ],
      "stateMutability": "nonpayable",
      "type": "function"
    },
    {
      "inputs": [
        {
          "internalType": "address",
          "name": "to",
          "type": "address"
        },
        {
          "internalType": "uint256",
          "name": "liquidity",
          "type": "uint256"
        }
      ],
      "name": "withdraw",
      "outputs": [
        {
          "internalType": "uint256",
          "name": "amount0",
          "type": "uint256"
        },
        {
          "internalType": "uint256",
          "name": "amount1",
          "type": "uint256"
        }
      ],
      "stateMutability": "nonpayable",
      "type": "function"
    }
  ],
  "bytecode": "0x610180604052600980546001600160e01b0316624b004b60e21b1790553480156200002957600080fd5b50604051620050ac380380620050ac8339810160408190526200004c9162000876565b8181336040518060400160405280600e81526020016d14d51490551151d250c81413d3d360921b8152506040518060400160405280600e81526020016d14d51490551151d250c81413d3d360921b81525081604051806040016040528060018152602001603160f81b81525083838160039081620000cb919062000952565b506004620000da828262000952565b505050620000f8600583620003eb60201b620016ee1790919060201c565b6101205262000115816006620003eb602090811b620016ee17901c565b61014052815160208084019190912060e052815190820120610100524660a052620001a360e05161010051604080517f8b73c3c69bb8fe3d512ecc4cf759cc79239f7b179b0ffacaa9a75d522b39400f60208201529081019290925260608201524660808201523060a082015260009060c00160405160208183030381529060405280519060200120905090565b60805250503060c05250506001600855600d80546001600160a01b0319166001600160a01b03928316179055604080516338d52e0f60e01b815290516000928516916338d52e0f9160048083019260209291908290030181865afa15801562000210573d6000803e3d6000fd5b505050506040513d601f19601f8201168201806040525081019062000236919062000a1e565b90506000826001600160a01b03166338d52e0f6040518163ffffffff1660e01b8152600401602060405180830381865afa15801562000279573d6000803e3d6000fd5b505050506040513d601f19601f820116820180604052508101906200029f919062000a1e565b6040805180820182526001600160a01b0385811680835288821660208085019182526010805460018082018355600083815288517f1b6847dc741a1b0cd08d278845f9d819d87b734759afb55fe2de5cb82a9ae672600294850281810180546001600160a01b0319908116948d1694909417905597517f1b6847dc741a1b0cd08d278845f9d819d87b734759afb55fe2de5cb82a9ae67398890180548416918c169190911790558b51808d01909c528c8a168c528f8a168c880190815286549485018755959092528a51929093029081018054841692891692909217909155915191909301805490931694169390931790559394509092620003b0918890600019906200043b811b6200171f17901c565b620003d785600019856001600160a01b03166200043b60201b6200171f179092919060201c565b505042610160525062000b1f945050505050565b60006020835110156200040b5762000403836200058e565b905062000435565b826200042283620005d160201b6200185e1760201c565b906200042f908262000952565b5060ff90505b92915050565b801580620004b95750604051636eb1769f60e11b81523060048201526001600160a01b03838116602483015284169063dd62ed3e90604401602060405180830381865afa15801562000491573d6000803e3d6000fd5b505050506040513d601f19601f82011682018060405250810190620004b7919062000a43565b155b620005315760405162461bcd60e51b815260206004820152603660248201527f5361666545524332303a20617070726f76652066726f6d206e6f6e2d7a65726f60448201527f20746f206e6f6e2d7a65726f20616c6c6f77616e63650000000000000000000060648201526084015b60405180910390fd5b604080516001600160a01b038416602482015260448082018490528251808303909101815260649091019091526020810180516001600160e01b0390811663095ea7b360e01b1790915262000589918591620005d416565b505050565b600080829050601f81511115620005bc578260405163305a27a960e01b815260040162000528919062000a83565b8051620005c98262000ab8565b179392505050565b90565b600062000630826040518060400160405280602081526020017f5361666545524332303a206c6f772d6c6576656c2063616c6c206661696c6564815250856001600160a01b0316620006b560201b62001861179092919060201c565b90508051600014806200065457508080602001905181019062000654919062000add565b620005895760405162461bcd60e51b815260206004820152602a60248201527f5361666545524332303a204552433230206f7065726174696f6e20646964206e6044820152691bdd081cdd58d8d9595960b21b606482015260840162000528565b6060620006c68484600085620006ce565b949350505050565b606082471015620007315760405162461bcd60e51b815260206004820152602660248201527f416464726573733a20696e73756666696369656e742062616c616e636520666f6044820152651c8818d85b1b60d21b606482015260840162000528565b600080866001600160a01b031685876040516200074f919062000b01565b60006040518083038185875af1925050503d80600081146200078e576040519150601f19603f3d011682016040523d82523d6000602084013e62000793565b606091505b509092509050620007a787838387620007b2565b979650505050505050565b60608315620008265782516000036200081e576001600160a01b0385163b6200081e5760405162461bcd60e51b815260206004820152601d60248201527f416464726573733a2063616c6c20746f206e6f6e2d636f6e7472616374000000604482015260640162000528565b5081620006c6565b620006c683838151156200083d5781518083602001fd5b8060405162461bcd60e51b815260040162000528919062000a83565b80516001600160a01b03811681146200087157600080fd5b919050565b600080604083850312156200088a57600080fd5b620008958362000859565b9150620008a56020840162000859565b90509250929050565b634e487b7160e01b600052604160045260246000fd5b600181811c90821680620008d957607f821691505b602082108103620008fa57634e487b7160e01b600052602260045260246000fd5b50919050565b601f8211156200058957600081815260208120601f850160051c81016020861015620009295750805b601f850160051c820191505b818110156200094a5782815560010162000935565b505050505050565b81516001600160401b038111156200096e576200096e620008ae565b62000986816200097f8454620008c4565b8462000900565b602080601f831160018114620009be5760008415620009a55750858301515b600019600386901b1c1916600185901b1785556200094a565b600085815260208120601f198616915b82811015620009ef57888601518255948401946001909101908401620009ce565b508582101562000a0e5787850151600019600388901b60f8161c191681555b5050505050600190811b01905550565b60006020828403121562000a3157600080fd5b62000a3c8262000859565b9392505050565b60006020828403121562000a5657600080fd5b5051919050565b60005b8381101562000a7a57818101518382015260200162000a60565b50506000910152565b602081526000825180602084015262000aa481604085016020870162000a5d565b601f01601f19169190910160400192915050565b80516020808301519190811015620008fa5760001960209190910360031b1b16919050565b60006020828403121562000af057600080fd5b8151801515811462000a3c57600080fd5b6000825162000b1581846020870162000a5d565b9190910192915050565b60805160a05160c05160e0516101005161012051610140516101605161451962000b93600039600081816105ad0152818161200d015261207801526000610aae01526000610a8301526000611fb801526000611f9001526000611eeb01526000611f1501526000611f3f01526145196000f3fe608060405234801561001057600080fd5b50600436106102465760003560e01c806306fdde031461024b5780630902f1ac14610269578063095ea7b3146102a65780630dfe1681146102c95780630efe6a8b146102e9578063158ef93e1461030a57806318160ddd1461031e57806323b872dd14610326578063288e5d02146103395780632fcd169214610342578063313ce5671461036a5780633644e5151461037957806339509351146103815780633b9ce199146103945780633b9f1dc0146103a857806349e5ebea146103b15780634eb738e8146103d257806362ecec03146103dc57806367d81740146103f15780636e7b8508146103fa57806370a082311461041b5780637464fc3d14610444578063766718081461044d57806379796888146104555780637ecebe001461045f5780638186cec21461047257806384b0196e1461047a57806395d89b4114610495578063a2c554d31461049d578063a457c2d7146104b0578063a9059cbb146104c3578063ba9a7a56146104d6578063bc25cf77146104df578063bc762016146104f2578063be4b853414610505578063c45a015514610518578063c653cf0a1461052b578063d21220a71461053e578063d24c42e714610551578063d505accf14610578578063d73792a91461058b578063dd62ed3e14610595578063ddaa26ad146105a8578063deea6117146105cf578063e22f3c2a146105e2578063e4bbb5a814610605578063f3fef3a314610618578063f59a7a081461062b578063fa68028314610682578063fff6cae9146106c9575b600080fd5b6102536106d1565b6040516102609190613cd0565b60405180910390f35b610271610763565b604080516001600160701b03958616815294909316602085015261ffff91821692840192909252166060820152608001610260565b6102b96102b4366004613cf8565b610796565b6040519015158152602001610260565b600e546102dc906001600160a01b031681565b6040516102609190613d24565b6102fc6102f7366004613d38565b6107b0565b604051908152602001610260565b600f546102b990600160a01b900460ff1681565b6002546102fc565b6102b9610334366004613d6d565b610810565b6102fc600b5481565b60095461035790600160f01b900461ffff1681565b60405161ffff9091168152602001610260565b60405160128152602001610260565b6102fc610836565b6102b961038f366004613cf8565b610845565b600f546102b990600160a81b900460ff1681565b6102fc600a5481565b6103c46103bf366004613dae565b610867565b604051610260929190613dc7565b6103da6108a0565b005b60095461035790600160e01b900461ffff1681565b6102fc6107d081565b61040d610408366004613df0565b6109b1565b604051610260929190613e0d565b6102fc610429366004613e1b565b6001600160a01b031660009081526020819052604090205490565b6102fc600c5481565b6102fc610a4c565b6102fc62278d0081565b6102fc61046d366004613e1b565b610a57565b6010546102fc565b610482610a75565b6040516102609796959493929190613e38565b610253610afe565b6103da6104ab366004613ece565b610b0d565b6102b96104be366004613cf8565b610d42565b6102b96104d1366004613cf8565b610dc8565b6102fc6103e881565b6103da6104ed366004613e1b565b610dd6565b61040d610500366004613dae565b610e9a565b6102fc610513366004613df0565b610f03565b600d546102dc906001600160a01b031681565b6102fc610539366004613cf8565b610fc5565b600f546102dc906001600160a01b031681565b61040d61055f366004613dae565b6012602052600090815260409020805460019091015482565b6103da610586366004613f6c565b611035565b6102fc620186a081565b6102fc6105a3366004613fdd565b61118d565b6102fc7f000000000000000000000000000000000000000000000000000000000000000081565b6102fc6105dd366004613dae565b6111b8565b6102b96105f0366004613dae565b60116020526000908152604090205460ff1681565b6103da610613366004614024565b6111c3565b61040d610626366004613cf8565b611361565b6106336113a8565b604080516001600160701b03998a168152602081019890985287019590955260608601939093529416608084015260a083019390935260c082019290925260e081019190915261010001610260565b610695610690366004613df0565b61143f565b604080516001600160a01b03958616815260ff94851660208201529490921691840191909152166060820152608001610260565b6103da61158f565b6060600380546106e09061406f565b80601f016020809104026020016040519081016040528092919081815260200182805461070c9061406f565b80156107595780601f1061072e57610100808354040283529160200191610759565b820191906000526020600020905b81548152906001019060200180831161073c57829003601f168201915b5050505050905090565b6009546001600160701b0380821692600160701b83049091169161ffff600160e01b8204811692600160f01b9092041690565b6000336107a4818585611870565b60019150505b92915050565b600e546000906107ca906001600160a01b03163385611994565b600f546107e1906001600160a01b03163384611994565b5060006107ef8484846119fb565b90506107fc600084611bf0565b50610808600183611bf0565b509392505050565b60003361081e858285611cd2565b610829858585611d4c565b60019150505b9392505050565b6000610840611ede565b905090565b6000336107a4818585610858838361118d565b61086291906140b9565b611870565b6010818154811061087757600080fd5b6000918252602090912060029091020180546001909101546001600160a01b0391821692501682565b600060016108ad42612009565b6108b791906140cc565b60008181526011602052604090205490915060ff161561091e5760405162461bcd60e51b815260206004820152601d60248201527f45706f6368207969656c647320686173206265656e20636c61696d656400000060448201526064015b60405180910390fd5b6000818152601160205260408120805460ff19166001179055806109406120a7565b60408051808201825283815260208082018481526000898152601290925290839020915182555160019091015551919350915083907f05e3b84b1f14ef775c31452654d7907ce6c663dc62ae9b22ca44908107284a78906109a49085908590613e0d565b60405180910390a2505050565b601054600090819060ff8416106109da5760405162461bcd60e51b8152600401610915906140df565b600060108460ff16815481106109f2576109f261410c565b60009182526020918290206040805180820190915260029092020180546001600160a01b03908116835260019091015416918101919091529050610a358461212b565b9250610a4481602001516121ac565b915050915091565b600061084042612009565b6001600160a01b0381166000908152600760205260408120546107aa565b600060608082808083610aa97f000000000000000000000000000000000000000000000000000000000000000060056121b7565b610ad47f000000000000000000000000000000000000000000000000000000000000000060066121b7565b60408051600080825260208201909252600f60f81b9b939a50919850469750309650945092509050565b6060600480546106e09061406f565b84600003610b525760405162461bcd60e51b81526020600482015260126024820152710496e76616c696420746f6b656e20737761760741b6044820152606401610915565b600e546001600160a01b0385811691161480610b7b5750600f546001600160a01b038581169116145b610bb95760405162461bcd60e51b815260206004820152600f60248201526e24b73b30b634b2103a37b5b2b724b760891b6044820152606401610915565b6000610bc58587610fc5565b600e549091506000906001600160a01b03878116911614610be7576000610bea565b60015b600e549091506000906001600160a01b03888116911614610c0c576001610c0f565b60005b9050610c1c82843061225b565b6040805161014081018252600e546001600160a01b03908116808352600f54821660208401526000938301918b1614610c56576000610c58565b8a5b8152600f546020909101906001600160a01b038b8116911614610c7c576000610c7e565b8a5b8152600e546020909101906001600160a01b038b8116911614610ca15785610ca4565b60005b8152600f546020909101906001600160a01b038b8116911614610cc75785610cca565b60005b815260200160008152602001600081526020016000815260200160008152509050610d2c818888888080601f01602080910402602001604051908101604052809392919081815260200183838082843760009201919091525061232d92505050565b610d36828a611bf0565b50505050505050505050565b60003381610d50828661118d565b905083811015610db05760405162461bcd60e51b815260206004820152602560248201527f45524332303a2064656372656173656420616c6c6f77616e63652062656c6f77604482015264207a65726f60d81b6064820152608401610915565b610dbd8286868403611870565b506001949350505050565b6000336107a4818585611d4c565b610dde612749565b600e546009546001600160a01b03909116906000906001600160701b0316610e05836127a2565b610e0f91906140cc565b600f546009549192506001600160a01b031690600090600160701b90046001600160701b0316610e3e836127a2565b610e4891906140cc565b9050610e5584868561282c565b610e6082868361282c565b6040517f21ad22495c9c75cd1c94756f91824e779c0c8a8e168b267c790df464fe056b7990600090a150505050610e976001600855565b50565b600080600080610ea8610763565b5050915091506000610eb960025490565b905080610ecf6001600160701b03851688614138565b610ed99190614165565b945080610eef6001600160701b03841688614138565b610ef99190614165565b9350505050915091565b60105460009060ff831610610f2a5760405162461bcd60e51b8152600401610915906140df565b60108260ff1681548110610f4057610f4061410c565b60009182526020909120600290910201600101546040516303d1689d60e11b8152670de0b6b3a764000060048201526001600160a01b03909116906307a2d13a90602401602060405180830381865afa158015610fa1573d6000803e3d6000fd5b505050506040513d601f19601f820116820180604052508101906107aa9190614187565b600e5460009081906001600160a01b03858116911614610ff257600954600160f01b900461ffff16611001565b600954600160e01b900461ffff165b60095490915061102d90859085906001600160701b0380821691600160701b90041661ffff86166128f0565b949350505050565b834211156110855760405162461bcd60e51b815260206004820152601d60248201527f45524332305065726d69743a206578706972656420646561646c696e650000006044820152606401610915565b60007f6e71edae12b1b97f4d1f60370fef10105fa2faae0126114a169c64845d6126c98888886110b48c612a85565b6040805160208101969096526001600160a01b0394851690860152929091166060840152608083015260a082015260c0810186905260e001604051602081830303815290604052805190602001209050600061110f82612aad565b9050600061111f82878787612ada565b9050896001600160a01b0316816001600160a01b0316146111825760405162461bcd60e51b815260206004820152601e60248201527f45524332305065726d69743a20696e76616c6964207369676e617475726500006044820152606401610915565b610d368a8a8a611870565b6001600160a01b03918216600090815260016020908152604080832093909416825291909152205490565b60006107aa82612009565b600d546001600160a01b0316331480156111e75750600f54600160a01b900460ff16155b61121f5760405162461bcd60e51b81526020600482015260096024820152683337b93134b23232b760b91b6044820152606401610915565b600e80546001600160a01b0319166001600160a01b03858116918217909255600f8054928516600161ff0160a01b031990931692909217600160a81b84151502179091556040805163313ce56760e01b8152905163313ce567916004808201926020929091908290030181865afa15801561129e573d6000803e3d6000fd5b505050506040513d601f19601f820116820180604052508101906112c291906141a0565b6112d09060ff16600a6142a1565b600a81905550816001600160a01b031663313ce5676040518163ffffffff1660e01b8152600401602060405180830381865afa158015611314573d6000803e3d6000fd5b505050506040513d601f19601f8201168201806040525081019061133891906141a0565b6113469060ff16600a6142a1565b600b555050600f805460ff60a01b1916600160a01b17905550565b60008061136f303385611994565b61137883610e9a565b90925090506113896000833061225b565b6113956001823061225b565b61139f8484612b02565b50509250929050565b6000806000806000806000806113bc610763565b509199509450600090506113cf81612cd4565b90506113de8160200151612d60565b97506113ed81602001516127a2565b96506113f96000612dd9565b955060006114076001612cd4565b90506114168160200151612d60565b945061142581602001516127a2565b93506114316001612dd9565b925050509091929394959697565b6000806000806010805490508560ff161061146c5760405162461bcd60e51b8152600401610915906140df565b600060108660ff16815481106114845761148461410c565b6000918252602091829020604080518082018252600290930290910180546001600160a01b039081168085526001909201541683850152815163313ce56760e01b81529151909850919350879263313ce567926004808401938290030181865afa1580156114f6573d6000803e3d6000fd5b505050506040513d601f19601f8201168201806040525081019061151a91906141a0565b935080602001519250826001600160a01b031663313ce5676040518163ffffffff1660e01b8152600401602060405180830381865afa158015611561573d6000803e3d6000fd5b505050506040513d601f19601f8201168201806040525081019061158591906141a0565b9150509193509193565b600e546040516370a0823160e01b81526000916001600160a01b0316906370a08231906115c0903090600401613d24565b602060405180830381865afa1580156115dd573d6000803e3d6000fd5b505050506040513d601f19601f820116820180604052508101906116019190614187565b600f546040516370a0823160e01b81529192506000916001600160a01b03909116906370a0823190611637903090600401613d24565b602060405180830381865afa158015611654573d6000803e3d6000fd5b505050506040513d601f19601f820116820180604052508101906116789190614187565b9050811580159061168857508015155b6116e05760405162461bcd60e51b815260206004820152602360248201527f4c697175696469747920726174696f206e6f742079657420696e697469616c696044820152621cd95960ea1b6064820152608401610915565b6116ea8282612e18565b5050565b600060208351101561170a5761170383612f18565b90506107aa565b8161171584826142fb565b5060ff90506107aa565b8015806117985750604051636eb1769f60e11b81526001600160a01b0384169063dd62ed3e906117559030908690600401613dc7565b602060405180830381865afa158015611772573d6000803e3d6000fd5b505050506040513d601f19601f820116820180604052508101906117969190614187565b155b6118035760405162461bcd60e51b815260206004820152603660248201527f5361666545524332303a20617070726f76652066726f6d206e6f6e2d7a65726f60448201527520746f206e6f6e2d7a65726f20616c6c6f77616e636560501b6064820152608401610915565b6118598363095ea7b360e01b84846040516024016118229291906143ba565b60408051601f198184030181529190526020810180516001600160e01b03166001600160e01b031990931692909217909152612f56565b505050565b90565b606061102d848460008561302b565b6001600160a01b0383166118d25760405162461bcd60e51b8152602060048201526024808201527f45524332303a20617070726f76652066726f6d20746865207a65726f206164646044820152637265737360e01b6064820152608401610915565b6001600160a01b0382166119335760405162461bcd60e51b815260206004820152602260248201527f45524332303a20617070726f766520746f20746865207a65726f206164647265604482015261737360f01b6064820152608401610915565b6001600160a01b0383811660008181526001602090815260408083209487168084529482529182902085905590518481527f8c5be1e5ebec7d5bd14f71427d1e84f3dd0314c0f7b2291e5b200ac8c7c3b925910160405180910390a3505050565b6001600160a01b0383166119e0578034146118595760405162461bcd60e51b815260206004820152600c60248201526b0cae8d040dad2e6dac2e8c6d60a31b6044820152606401610915565b8015611859576118596001600160a01b038416833084613106565b6000611a05612749565b600080611a10610763565b509193509150859050846000611a26858561313e565b90506000611a3360025490565b905080600003611a7c576103e8611a52611a4d8587614138565b6132d5565b611a5c91906140cc565b600d54909750611a77906001600160a01b03166103e861333f565b611add565b6009546000906001600160701b0316611a958387614138565b611a9f9190614165565b600954909150600090600160701b90046001600160701b0316611ac28487614138565b611acc9190614165565b9050611ad882826133ec565b985050505b60008711611b2d5760405162461bcd60e51b815260206004820152601d60248201527f496e73756666696369656e74206c6971756964697479206d696e7465640000006044820152606401610915565b611b378a8861333f565b600954611b7390611b51906001600160701b03168b6140b9565b600954611b6e90600160701b90046001600160701b03168b6140b9565b612e18565b8115611b9d57600954611b99906001600160701b0380821691600160701b900416613402565b600c555b336001600160a01b03167f7b549d02c66f90f9788e61c2890c043afab56a7999c5172059cb0e4ca25f54388585604051611bd8929190613e0d565b60405180910390a250505050505061082f6001600855565b600080611bfc84612cd4565b6020810151604051636e553f6560e01b8152600481018690523060248201529192506001600160a01b031690636e553f65906044016020604051808303816000875af1158015611c50573d6000803e3d6000fd5b505050506040513d601f19601f82011682018060405250810190611c749190614187565b915080600001516001600160a01b031681602001516001600160a01b03167f5548c837ab068cf56a2c2479df0882a4922fd203edb7517321831d95078c5f6285604051611cc391815260200190565b60405180910390a35092915050565b6000611cde848461118d565b90506000198114611d465781811015611d395760405162461bcd60e51b815260206004820152601d60248201527f45524332303a20696e73756666696369656e7420616c6c6f77616e63650000006044820152606401610915565b611d468484848403611870565b50505050565b6001600160a01b038316611db05760405162461bcd60e51b815260206004820152602560248201527f45524332303a207472616e736665722066726f6d20746865207a65726f206164604482015264647265737360d81b6064820152608401610915565b6001600160a01b038216611e125760405162461bcd60e51b815260206004820152602360248201527f45524332303a207472616e7366657220746f20746865207a65726f206164647260448201526265737360e81b6064820152608401610915565b6001600160a01b03831660009081526020819052604090205481811015611e8a5760405162461bcd60e51b815260206004820152602660248201527f45524332303a207472616e7366657220616d6f756e7420657863656564732062604482015265616c616e636560d01b6064820152608401610915565b6001600160a01b03848116600081815260208181526040808320878703905593871680835291849020805487019055925185815290926000805160206144a4833981519152910160405180910390a3611d46565b6000306001600160a01b037f000000000000000000000000000000000000000000000000000000000000000016148015611f3757507f000000000000000000000000000000000000000000000000000000000000000046145b15611f6157507f000000000000000000000000000000000000000000000000000000000000000090565b610840604080517f8b73c3c69bb8fe3d512ecc4cf759cc79239f7b179b0ffacaa9a75d522b39400f60208201527f0000000000000000000000000000000000000000000000000000000000000000918101919091527f000000000000000000000000000000000000000000000000000000000000000060608201524660808201523060a082015260009060c00160405160208183030381529060405280519060200120905090565b60007f000000000000000000000000000000000000000000000000000000000000000082101561206f5760405162461bcd60e51b81526020600482015260116024820152700496e76616c69642074696d657374616d7607c1b6044820152606401610915565b62278d0061209d7f0000000000000000000000000000000000000000000000000000000000000000846140cc565b6107aa9190614165565b6000806000806120b5610763565b505091509150816001600160701b03166120cf6000613490565b6120d991906140cc565b93506120ef6000836001600160701b0316611bf0565b50806001600160701b03166121046001613490565b61210e91906140cc565b92506121246001826001600160701b0316611bf0565b5050509091565b60105460009060ff8316106121525760405162461bcd60e51b8152600401610915906140df565b600060108360ff168154811061216a5761216a61410c565b60009182526020918290206040805180820190915260029092020180546001600160a01b03908116835260019091015416918101829052915061082f90612d60565b60006107aa826127a2565b606060ff83146121ca57611703836135d7565b8180546121d69061406f565b80601f01602080910402602001604051908101604052809291908181526020018280546122029061406f565b801561224f5780601f106122245761010080835404028352916020019161224f565b820191906000526020600020905b81548152906001019060200180831161223257829003601f168201915b505050505090506107aa565b600061226684612cd4565b9050600081602001516001600160a01b031663b460af948585306040518463ffffffff1660e01b815260040161229e939291906143d3565b6020604051808303816000875af11580156122bd573d6000803e3d6000fd5b505050506040513d601f19601f820116820180604052508101906122e19190614187565b905081600001516001600160a01b031682602001516001600160a01b03166000805160206144c48339815191528360405161231e91815260200190565b60405180910390a35050505050565b612335612749565b60008360800151118061234c575060008360a00151115b6123965760405162461bcd60e51b815260206004820152601b60248201527a08125b9cdd59999a58da595b9d081bdd5d1c1d5d08185b5bdd5b9d602a1b6044820152606401610915565b6000806000806123a4610763565b9350935093509350836001600160701b031687608001511080156123d45750826001600160701b03168760a00151105b61241a5760405162461bcd60e51b815260206004820152601760248201527620496e73756666696369656e74206c697175696469747960481b6044820152606401610915565b86516001600160a01b0387811691161480159061244d575086602001516001600160a01b0316866001600160a01b031614155b6124945760405162461bcd60e51b8152602060048201526018602482015277496e76616c6964207265636569766572206164647265737360401b6044820152606401610915565b60008760800151116124b8576124b38760000151338960400151611994565b6124cb565b6124cb876000015187896080015161282c565b60008760a00151116124ef576124ea8760200151338960600151611994565b612502565b6125028760200151878960a0015161282c565b6040870151608088015161251f906001600160701b0387166140cc565b61252991906140b9565b60c0880152606087015160a088015161254b906001600160701b0386166140cc565b61255591906140b9565b60e08801526040870151151580612570575060008760600151115b6125b95760405162461bcd60e51b815260206004820152601a60248201527908125b9cdd59999a58da595b9d081a5b9c1d5d08185b5bdd5b9d60321b6044820152606401610915565b620186a08261ffff1688604001516125d19190614138565b6125db9190614165565b6101008801526060870151620186a0906125fa9061ffff841690614138565b6126049190614165565b61012088015261010087015160c0880151600091612621916140cc565b905060008861012001518960e0015161263a91906140cc565b9050612658866001600160701b0316866001600160701b0316613402565b6126628383613402565b10156126b05760405162461bcd60e51b815260206004820152601e60248201527f4b2073686f756c6420626520657175616c206f7220696e6372656173656400006044820152606401610915565b50506126c48760c001518860e00151612e18565b856001600160a01b0316336001600160a01b03167fd78ad95fa46c994b6551d0da85fc275fe613ce37657fb8d5e3d130840159d82289604001518a606001518b608001518c60a00151604051612733949392919093845260208401929092526040830152606082015260800190565b60405180910390a3505050506118596001600855565b60026008540361279b5760405162461bcd60e51b815260206004820152601f60248201527f5265656e7472616e637947756172643a207265656e7472616e742063616c6c006044820152606401610915565b6002600855565b60006001600160a01b03821615612825576040516370a0823160e01b81526001600160a01b038316906370a08231906127df903090600401613d24565b602060405180830381865afa1580156127fc573d6000803e3d6000fd5b505050506040513d601f19601f820116820180604052508101906128209190614187565b6107aa565b4792915050565b8060000361283957505050565b6001600160a01b0383166128dc576000826001600160a01b03168260405160006040518083038185875af1925050503d8060008114612894576040519150601f19603f3d011682016040523d82523d6000602084013e612899565b606091505b5050905080611d465760405162461bcd60e51b815260206004820152600f60248201526e195d1a081cd95b990819985a5b1959608a1b6044820152606401610915565b6118596001600160a01b0384168383613616565b600e54600090819081906001600160a01b03898116911614612913578486612916565b85855b600f549193509150600160a81b900460ff1615612a3257620186a061293b8589614138565b6129459190614165565b61294f90886140cc565b9650600061295d8383613402565b600a54909150612975670de0b6b3a764000089614138565b61297f9190614165565b600b54909750612997670de0b6b3a764000088614138565b6129a19190614165565b600e549096506000906001600160a01b038b81169116146129c457600b546129c8565b600a545b9050806129dd670de0b6b3a76400008b614138565b6129e79190614165565b985060006129ff6129f8868c6140b9565b8486613635565b612a0990856140cc565b9050670de0b6b3a7640000612a1e8383614138565b612a289190614165565b9550505050612a7a565b612a3f84620186a06140cc565b612a499088614138565b965086612a59620186a084614138565b612a6391906140b9565b612a6d8289614138565b612a779190614165565b92505b505095945050505050565b6001600160a01b03811660009081526007602052604090208054600181018255905b50919050565b60006107aa612aba611ede565b8360405161190160f01b8152600281019290925260228201526042902090565b6000806000612aeb87878787613744565b91509150612af8816137fe565b5095945050505050565b600080612b0d612749565b600e54600f546001600160a01b03918216911684612b2a306127a2565b1015612b775760405162461bcd60e51b815260206004820152601c60248201527b24b73b30b634b2103634b8bab4b234ba3c903837b9b9b2b9b9b2b21760211b6044820152606401610915565b600080612b82610763565b5050915091506000612b94838361313e565b9050612b9f88610e9a565b90975095508615801590612bb35750600086115b612bfe5760405162461bcd60e51b815260206004820152601c60248201527b125b9cdd59999a58da595b9d081b1a5c5d5a591a5d1e48189d5c9b9d60221b6044820152606401610915565b612c083089613943565b612c13858a8961282c565b612c1e848a8861282c565b612c47612c34886001600160701b0386166140cc565b611b6e886001600160701b0386166140cc565b8015612c7157600954612c6d906001600160701b0380821691600160701b900416613402565b600c555b886001600160a01b0316336001600160a01b03167f34ef8e86237e7385b43618862e895c6ce827b2b7d6107ad415d54336c1dd2dd68989604051612cb6929190613e0d565b60405180910390a35050505050612ccd6001600855565b9250929050565b604080518082019091526000808252602082015260105460ff831610612d0c5760405162461bcd60e51b8152600401610915906140df565b60108260ff1681548110612d2257612d2261410c565b60009182526020918290206040805180820190915260029092020180546001600160a01b039081168352600190910154169181019190915292915050565b600080612d6c836127a2565b60405163266d6a8360e11b8152600481018290529091506001600160a01b03841690634cdad506906024015b602060405180830381865afa158015612db5573d6000803e3d6000fd5b505050506040513d601f19601f8201168201806040525081019061082f9190614187565b600080612de583612cd4565b6020810151604051636c82bbbf60e11b81529192506001600160a01b03169063d905777e90612d98903090600401613d24565b6001600160701b03821115612e635760405162461bcd60e51b815260206004820152601160248201527004f766572666c6f772062616c616e63653607c1b6044820152606401610915565b6001600160701b03811115612eae5760405162461bcd60e51b81526020600482015260116024820152704f766572666c6f772062616c616e63653160781b6044820152606401610915565b600980546001600160701b038481166001600160e01b03199092168217600160701b918516918202179092556040805191825260208201929092527f1c411e9a96e071241c2f21f7726b17ae89e3cab4c78be50e062b03a9fffbbad1910160405180910390a15050565b600080829050601f81511115612f43578260405163305a27a960e01b81526004016109159190613cd0565b8051612f4e826143f2565b179392505050565b6000612fab826040518060400160405280602081526020017f5361666545524332303a206c6f772d6c6576656c2063616c6c206661696c6564815250856001600160a01b03166118619092919063ffffffff16565b9050805160001480612fcc575080806020019051810190612fcc9190614416565b6118595760405162461bcd60e51b815260206004820152602a60248201527f5361666545524332303a204552433230206f7065726174696f6e20646964206e6044820152691bdd081cdd58d8d9595960b21b6064820152608401610915565b60608247101561308c5760405162461bcd60e51b815260206004820152602660248201527f416464726573733a20696e73756666696369656e742062616c616e636520666f6044820152651c8818d85b1b60d21b6064820152608401610915565b600080866001600160a01b031685876040516130a89190614433565b60006040518083038185875af1925050503d80600081146130e5576040519150601f19603f3d011682016040523d82523d6000602084013e6130ea565b606091505b50915091506130fb87838387613a63565b979650505050505050565b6040516001600160a01b0380851660248301528316604482015260648101829052611d469085906323b872dd60e01b90608401611822565b600f54600090600160a81b900460ff161561315b575060006107aa565b600d5460408051634cadad5760e11b8152815160009384936001600160a01b039091169263995b5aae92600480830193928290030181865afa1580156131a5573d6000803e3d6000fd5b505050506040513d601f19601f820116820180604052508101906131c9919061444f565b600c546001600160a01b0382161580159650929450909250906132c05780156132bb57600061320d611a4d886001600160701b0316886001600160701b0316613402565b9050600061321a836132d5565b9050808211156132b8576000606486613236620186a083614138565b6132409190614165565b61324a91906140cc565b9050600061325883856140cc565b6002546132659190614138565b613270906064614138565b9050600061327f846064614138565b6132898487614138565b61329391906140b9565b905060006132a18284614165565b905080156132b3576132b3888261333f565b505050505b50505b6132cc565b80156132cc576000600c555b50505092915050565b6000600382111561333057508060006132ef600283614165565b6132fa9060016140b9565b90505b81811015612aa7579050806002816133158186614165565b61331f91906140b9565b6133299190614165565b90506132fd565b811561333a575060015b919050565b6001600160a01b0382166133955760405162461bcd60e51b815260206004820152601f60248201527f45524332303a206d696e7420746f20746865207a65726f2061646472657373006044820152606401610915565b80600260008282546133a791906140b9565b90915550506001600160a01b038216600081815260208181526040808320805486019055518481526000805160206144a4833981519152910160405180910390a35050565b60008183106133fb578161082f565b5090919050565b600f54600090600160a81b900460ff161561348657600061342584600a54613adc565b9050600061343584600b54613adc565b905060006134438383613b0b565b905060006134518485613b0b565b9050600061345f8485613b0b565b9050600061346d82846140b9565b90506134798482613b0b565b96505050505050506107aa565b61082f8284614138565b60008061349c83612cd4565b9050600081602001516001600160a01b031663d905777e306040518263ffffffff1660e01b81526004016134d09190613d24565b602060405180830381865afa1580156134ed573d6000803e3d6000fd5b505050506040513d601f19601f820116820180604052508101906135119190614187565b6020830151604051635d043b2960e11b81529192506001600160a01b03169063ba08765290613548908490309081906004016143d3565b6020604051808303816000875af1158015613567573d6000803e3d6000fd5b505050506040513d601f19601f8201168201806040525081019061358b9190614187565b925081600001516001600160a01b031682602001516001600160a01b03166000805160206144c4833981519152836040516135c891815260200190565b60405180910390a35050919050565b606060006135e483613b29565b604080516020808252818301909252919250600091906020820181803683375050509182525060208101929092525090565b6118598363a9059cbb60e01b84846040516024016118229291906143ba565b6000805b60ff81101561373b5782600061364f8783613b51565b90508581101561369f5760006136658887613bee565b61366f83896140cc565b61368190670de0b6b3a7640000614138565b61368b9190614165565b905061369781876140b9565b9550506136e1565b60006136ab8887613bee565b6136b588846140cc565b6136c790670de0b6b3a7640000614138565b6136d19190614165565b90506136dd81876140cc565b9550505b8185111561370a5760016136f583876140cc565b116137055784935050505061082f565b613726565b600161371686846140cc565b116137265784935050505061082f565b5050808061373390614474565b915050613639565b50909392505050565b6000806fa2a8918ca85bafe22016d0b997e4df60600160ff1b0383111561377157506000905060036137f5565b6040805160008082526020820180845289905260ff881692820192909252606081018690526080810185905260019060a0016020604051602081039080840390855afa1580156137c5573d6000803e3d6000fd5b5050604051601f1901519150506001600160a01b0381166137ee576000600192509250506137f5565b9150600090505b94509492505050565b60008160048111156138125761381261448d565b0361381a5750565b600181600481111561382e5761382e61448d565b036138765760405162461bcd60e51b815260206004820152601860248201527745434453413a20696e76616c6964207369676e617475726560401b6044820152606401610915565b600281600481111561388a5761388a61448d565b036138d75760405162461bcd60e51b815260206004820152601f60248201527f45434453413a20696e76616c6964207369676e6174757265206c656e677468006044820152606401610915565b60038160048111156138eb576138eb61448d565b03610e975760405162461bcd60e51b815260206004820152602260248201527f45434453413a20696e76616c6964207369676e6174757265202773272076616c604482015261756560f01b6064820152608401610915565b6001600160a01b0382166139a35760405162461bcd60e51b815260206004820152602160248201527f45524332303a206275726e2066726f6d20746865207a65726f206164647265736044820152607360f81b6064820152608401610915565b6001600160a01b03821660009081526020819052604090205481811015613a175760405162461bcd60e51b815260206004820152602260248201527f45524332303a206275726e20616d6f756e7420657863656564732062616c616e604482015261636560f01b6064820152608401610915565b6001600160a01b0383166000818152602081815260408083208686039055600280548790039055518581529192916000805160206144a4833981519152910160405180910390a3505050565b60608315613ad2578251600003613acb576001600160a01b0385163b613acb5760405162461bcd60e51b815260206004820152601d60248201527f416464726573733a2063616c6c20746f206e6f6e2d636f6e74726163740000006044820152606401610915565b508161102d565b61102d8383613c56565b600080613af1670de0b6b3a764000085614138565b9050828181613b0257613b0261414f565b04949350505050565b600080613b188385614138565b9050670de0b6b3a764000081613b02565b600060ff8216601f8111156107aa57604051632cd44ac360e21b815260040160405180910390fd5b6000670de0b6b3a764000082818581613b6a8280614138565b613b749190614165565b613b7e9190614138565b613b889190614165565b613b929190614138565b613b9c9190614165565b670de0b6b3a7640000808481613bb28280614138565b613bbc9190614165565b613bc69190614138565b613bd09190614165565b613bda9086614138565b613be49190614165565b61082f91906140b9565b6000670de0b6b3a76400008381613c058280614138565b613c0f9190614165565b613c199190614138565b613c239190614165565b670de0b6b3a764000080613c378580614138565b613c419190614165565b613c4c866003614138565b613bda9190614138565b815115613c665781518083602001fd5b8060405162461bcd60e51b81526004016109159190613cd0565b60005b83811015613c9b578181015183820152602001613c83565b50506000910152565b60008151808452613cbc816020860160208601613c80565b601f01601f19169290920160200192915050565b60208152600061082f6020830184613ca4565b6001600160a01b0381168114610e9757600080fd5b60008060408385031215613d0b57600080fd5b8235613d1681613ce3565b946020939093013593505050565b6001600160a01b0391909116815260200190565b600080600060608486031215613d4d57600080fd5b8335613d5881613ce3565b95602085013595506040909401359392505050565b600080600060608486031215613d8257600080fd5b8335613d8d81613ce3565b92506020840135613d9d81613ce3565b929592945050506040919091013590565b600060208284031215613dc057600080fd5b5035919050565b6001600160a01b0392831681529116602082015260400190565b60ff81168114610e9757600080fd5b600060208284031215613e0257600080fd5b813561082f81613de1565b918252602082015260400190565b600060208284031215613e2d57600080fd5b813561082f81613ce3565b60ff60f81b881681526000602060e081840152613e5860e084018a613ca4565b8381036040850152613e6a818a613ca4565b606085018990526001600160a01b038816608086015260a0850187905284810360c0860152855180825283870192509083019060005b81811015613ebc57835183529284019291840191600101613ea0565b50909c9b505050505050505050505050565b600080600080600060808688031215613ee657600080fd5b853594506020860135613ef881613ce3565b93506040860135613f0881613ce3565b925060608601356001600160401b0380821115613f2457600080fd5b818801915088601f830112613f3857600080fd5b813581811115613f4757600080fd5b896020828501011115613f5957600080fd5b9699959850939650602001949392505050565b600080600080600080600060e0888a031215613f8757600080fd5b8735613f9281613ce3565b96506020880135613fa281613ce3565b955060408801359450606088013593506080880135613fc081613de1565b9699959850939692959460a0840135945060c09093013592915050565b60008060408385031215613ff057600080fd5b8235613ffb81613ce3565b9150602083013561400b81613ce3565b809150509250929050565b8015158114610e9757600080fd5b60008060006060848603121561403957600080fd5b833561404481613ce3565b9250602084013561405481613ce3565b9150604084013561406481614016565b809150509250925092565b600181811c9082168061408357607f821691505b602082108103612aa757634e487b7160e01b600052602260045260246000fd5b634e487b7160e01b600052601160045260246000fd5b808201808211156107aa576107aa6140a3565b818103818111156107aa576107aa6140a3565b602080825260139082015272092dcecc2d8d2c840e8ded6cadc40d2dcc8caf606b1b604082015260600190565b634e487b7160e01b600052603260045260246000fd5b634e487b7160e01b600052604160045260246000fd5b80820281158282048414176107aa576107aa6140a3565b634e487b7160e01b600052601260045260246000fd5b60008261418257634e487b7160e01b600052601260045260246000fd5b500490565b60006020828403121561419957600080fd5b5051919050565b6000602082840312156141b257600080fd5b815161082f81613de1565b600181815b808511156141f85781600019048211156141de576141de6140a3565b808516156141eb57918102915b93841c93908002906141c2565b509250929050565b60008261420f575060016107aa565b8161421c575060006107aa565b8160018114614232576002811461423c57614258565b60019150506107aa565b60ff84111561424d5761424d6140a3565b50506001821b6107aa565b5060208310610133831016604e8410600b841016171561427b575081810a6107aa565b61428583836141bd565b8060001904821115614299576142996140a3565b029392505050565b600061082f8383614200565b601f82111561185957600081815260208120601f850160051c810160208610156142d45750805b601f850160051c820191505b818110156142f3578281556001016142e0565b505050505050565b81516001600160401b0381111561431457614314614122565b61432881614322845461406f565b846142ad565b602080601f83116001811461435d57600084156143455750858301515b600019600386901b1c1916600185901b1785556142f3565b600085815260208120601f198616915b8281101561438c5788860151825594840194600190910190840161436d565b50858210156143aa5787850151600019600388901b60f8161c191681555b5050505050600190811b01905550565b6001600160a01b03929092168252602082015260400190565b9283526001600160a01b03918216602084015216604082015260600190565b80516020808301519190811015612aa75760001960209190910360031b1b16919050565b60006020828403121561442857600080fd5b815161082f81614016565b60008251614445818460208701613c80565b9190910192915050565b6000806040838503121561446257600080fd5b82519150602083015161400b81613ce3565b600060018201614486576144866140a3565b5060010190565b634e487b7160e01b600052602160045260246000fdfeddf252ad1be2c89b69c2b068fc378daa952ba7f163c4a11628f55a4df523b3ef9b1bfa7fa9ee420a16e124f794c35ac9f90472acc99140eb2f6447c714cad8eba26469706673582212206c80679c26401609385aa3ab5953ff17c3fada8ce382b36b4bad8a814f7f9a6464736f6c63430008110033",
  "linkReferences": {},
  "deployedLinkReferences": {}
}