{
  "_format": "hh-sol-artifact-1",
  "contractName": "StrategicPoolERC20Permit",
  "sourceName": "contracts/core/StrategicPoolERC20Permit.sol",
  "abi": [
    {
      "inputs": [
        {
          "internalType": "string",
          "name": "name_",
          "type": "string"
        },
        {
          "internalType": "string",
          "name": "symbol_",
          "type": "string"
        }
      ],
      "stateMutability": "nonpayable",
      "type": "constructor"
    },
    {
      "inputs": [],
      "name": "InvalidShortString",
      "type": "error"
    },
    {
      "inputs": [
        {
          "internalType": "string",
          "name": "str",
          "type": "string"
        }
      ],
      "name": "StringTooLong",
      "type": "error"
    },
    {
      "anonymous": false,
      "inputs": [
        {
          "indexed": true,
          "internalType": "address",
          "name": "owner",
          "type": "address"
        },
        {
          "indexed": true,
          "internalType": "address",
          "name": "spender",
          "type": "address"
        },
        {
          "indexed": false,
          "internalType": "uint256",
          "name": "value",
          "type": "uint256"
        }
      ],
      "name": "Approval",
      "type": "event"
    },
    {
      "anonymous": false,
      "inputs": [],
      "name": "EIP712DomainChanged",
      "type": "event"
    },
    {
      "anonymous": false,
      "inputs": [
        {
          "indexed": true,
          "internalType": "address",
          "name": "from",
          "type": "address"
        },
        {
          "indexed": true,
          "internalType": "address",
          "name": "to",
          "type": "address"
        },
        {
          "indexed": false,
          "internalType": "uint256",
          "name": "value",
          "type": "uint256"
        }
      ],
      "name": "Transfer",
      "type": "event"
    },
    {
      "inputs": [],
      "name": "DOMAIN_SEPARATOR",
      "outputs": [
        {
          "internalType": "bytes32",
          "name": "",
          "type": "bytes32"
        }
      ],
      "stateMutability": "view",
      "type": "function"
    },
    {
      "inputs": [
        {
          "internalType": "address",
          "name": "owner",
          "type": "address"
        },
        {
          "internalType": "address",
          "name": "spender",
          "type": "address"
        }
      ],
      "name": "allowance",
      "outputs": [
        {
          "internalType": "uint256",
          "name": "",
          "type": "uint256"
        }
      ],
      "stateMutability": "view",
      "type": "function"
    },
    {
      "inputs": [
        {
          "internalType": "address",
          "name": "spender",
          "type": "address"
        },
        {
          "internalType": "uint256",
          "name": "amount",
          "type": "uint256"
        }
      ],
      "name": "approve",
      "outputs": [
        {
          "internalType": "bool",
          "name": "",
          "type": "bool"
        }
      ],
      "stateMutability": "nonpayable",
      "type": "function"
    },
    {
      "inputs": [
        {
          "internalType": "address",
          "name": "account",
          "type": "address"
        }
      ],
      "name": "balanceOf",
      "outputs": [
        {
          "internalType": "uint256",
          "name": "",
          "type": "uint256"
        }
      ],
      "stateMutability": "view",
      "type": "function"
    },
    {
      "inputs": [],
      "name": "decimals",
      "outputs": [
        {
          "internalType": "uint8",
          "name": "",
          "type": "uint8"
        }
      ],
      "stateMutability": "view",
      "type": "function"
    },
    {
      "inputs": [
        {
          "internalType": "address",
          "name": "spender",
          "type": "address"
        },
        {
          "internalType": "uint256",
          "name": "subtractedValue",
          "type": "uint256"
        }
      ],
      "name": "decreaseAllowance",
      "outputs": [
        {
          "internalType": "bool",
          "name": "",
          "type": "bool"
        }
      ],
      "stateMutability": "nonpayable",
      "type": "function"
    },
    {
      "inputs": [],
      "name": "eip712Domain",
      "outputs": [
        {
          "internalType": "bytes1",
          "name": "fields",
          "type": "bytes1"
        },
        {
          "internalType": "string",
          "name": "name",
          "type": "string"
        },
        {
          "internalType": "string",
          "name": "version",
          "type": "string"
        },
        {
          "internalType": "uint256",
          "name": "chainId",
          "type": "uint256"
        },
        {
          "internalType": "address",
          "name": "verifyingContract",
          "type": "address"
        },
        {
          "internalType": "bytes32",
          "name": "salt",
          "type": "bytes32"
        },
        {
          "internalType": "uint256[]",
          "name": "extensions",
          "type": "uint256[]"
        }
      ],
      "stateMutability": "view",
      "type": "function"
    },
    {
      "inputs": [
        {
          "internalType": "address",
          "name": "spender",
          "type": "address"
        },
        {
          "internalType": "uint256",
          "name": "addedValue",
          "type": "uint256"
        }
      ],
      "name": "increaseAllowance",
      "outputs": [
        {
          "internalType": "bool",
          "name": "",
          "type": "bool"
        }
      ],
      "stateMutability": "nonpayable",
      "type": "function"
    },
    {
      "inputs": [],
      "name": "name",
      "outputs": [
        {
          "internalType": "string",
          "name": "",
          "type": "string"
        }
      ],
      "stateMutability": "view",
      "type": "function"
    },
    {
      "inputs": [
        {
          "internalType": "address",
          "name": "owner",
          "type": "address"
        }
      ],
      "name": "nonces",
      "outputs": [
        {
          "internalType": "uint256",
          "name": "",
          "type": "uint256"
        }
      ],
      "stateMutability": "view",
      "type": "function"
    },
    {
      "inputs": [
        {
          "internalType": "address",
          "name": "owner",
          "type": "address"
        },
        {
          "internalType": "address",
          "name": "spender",
          "type": "address"
        },
        {
          "internalType": "uint256",
          "name": "value",
          "type": "uint256"
        },
        {
          "internalType": "uint256",
          "name": "deadline",
          "type": "uint256"
        },
        {
          "internalType": "uint8",
          "name": "v",
          "type": "uint8"
        },
        {
          "internalType": "bytes32",
          "name": "r",
          "type": "bytes32"
        },
        {
          "internalType": "bytes32",
          "name": "s",
          "type": "bytes32"
        }
      ],
      "name": "permit",
      "outputs": [],
      "stateMutability": "nonpayable",
      "type": "function"
    },
    {
      "inputs": [],
      "name": "symbol",
      "outputs": [
        {
          "internalType": "string",
          "name": "",
          "type": "string"
        }
      ],
      "stateMutability": "view",
      "type": "function"
    },
    {
      "inputs": [],
      "name": "totalSupply",
      "outputs": [
        {
          "internalType": "uint256",
          "name": "",
          "type": "uint256"
        }
      ],
      "stateMutability": "view",
      "type": "function"
    },
    {
      "inputs": [
        {
          "internalType": "address",
          "name": "to",
          "type": "address"
        },
        {
          "internalType": "uint256",
          "name": "amount",
          "type": "uint256"
        }
      ],
      "name": "transfer",
      "outputs": [
        {
          "internalType": "bool",
          "name": "",
          "type": "bool"
        }
      ],
      "stateMutability": "nonpayable",
      "type": "function"
    },
    {
      "inputs": [
        {
          "internalType": "address",
          "name": "from",
          "type": "address"
        },
        {
          "internalType": "address",
          "name": "to",
          "type": "address"
        },
        {
          "internalType": "uint256",
          "name": "amount",
          "type": "uint256"
        }
      ],
      "name": "transferFrom",
      "outputs": [
        {
          "internalType": "bool",
          "name": "",
          "type": "bool"
        }
      ],
      "stateMutability": "nonpayable",
      "type": "function"
    }
  ],
  "bytecode": "0x6101606040523480156200001257600080fd5b5060405162001799380380620017998339810160408190526200003591620002b5565b6040805180820190915260018152603160f81b60208201528290818360036200005f8382620003ae565b5060046200006e8282620003ae565b5050506200008c6005836200014960201b620005db1790919060201c565b61012052620000a981600662000149602090811b620005db17901c565b61014052815160208084019190912060e052815190820120610100524660a0526200013760e05161010051604080517f8b73c3c69bb8fe3d512ecc4cf759cc79239f7b179b0ffacaa9a75d522b39400f60208201529081019290925260608201524660808201523060a082015260009060c00160405160208183030381529060405280519060200120905090565b60805250503060c05250620004d49050565b60006020835110156200016957620001618362000199565b905062000193565b826200018083620001e560201b6200060c1760201c565b906200018d9082620003ae565b5060ff90505b92915050565b600080829050601f81511115620001d0578260405163305a27a960e01b8152600401620001c791906200047a565b60405180910390fd5b8051620001dd82620004af565b179392505050565b90565b634e487b7160e01b600052604160045260246000fd5b60005b838110156200021b57818101518382015260200162000201565b50506000910152565b600082601f8301126200023657600080fd5b81516001600160401b0380821115620002535762000253620001e8565b604051601f8301601f19908116603f011681019082821181831017156200027e576200027e620001e8565b816040528381528660208588010111156200029857600080fd5b620002ab846020830160208901620001fe565b9695505050505050565b60008060408385031215620002c957600080fd5b82516001600160401b0380821115620002e157600080fd5b620002ef8683870162000224565b935060208501519150808211156200030657600080fd5b50620003158582860162000224565b9150509250929050565b600181811c908216806200033457607f821691505b6020821081036200035557634e487b7160e01b600052602260045260246000fd5b50919050565b601f821115620003a957600081815260208120601f850160051c81016020861015620003845750805b601f850160051c820191505b81811015620003a55782815560010162000390565b5050505b505050565b81516001600160401b03811115620003ca57620003ca620001e8565b620003e281620003db84546200031f565b846200035b565b602080601f8311600181146200041a5760008415620004015750858301515b600019600386901b1c1916600185901b178555620003a5565b600085815260208120601f198616915b828110156200044b578886015182559484019460019091019084016200042a565b50858210156200046a5787850151600019600388901b60f8161c191681555b5050505050600190811b01905550565b60208152600082518060208401526200049b816040850160208701620001fe565b601f01601f19169190910160400192915050565b80516020808301519190811015620003555760001960209190910360031b1b16919050565b60805160a05160c05160e05161010051610120516101405161126a6200052f600039600061035f0152600061033401526000610a2b01526000610a030152600061095e01526000610988015260006109b2015261126a6000f3fe608060405234801561001057600080fd5b50600436106100c55760003560e01c806306fdde03146100ca578063095ea7b3146100e857806318160ddd1461010b57806323b872dd1461011d578063313ce567146101305780633644e5151461013f578063395093511461014757806370a082311461015a5780637ecebe001461018357806384b0196e1461019657806395d89b41146101b1578063a457c2d7146101b9578063a9059cbb146101cc578063d505accf146101df578063dd62ed3e146101f4575b600080fd5b6100d2610207565b6040516100df9190610e8f565b60405180910390f35b6100fb6100f6366004610ec5565b610299565b60405190151581526020016100df565b6002545b6040519081526020016100df565b6100fb61012b366004610eef565b6102b3565b604051601281526020016100df565b61010f6102d7565b6100fb610155366004610ec5565b6102e6565b61010f610168366004610f2b565b6001600160a01b031660009081526020819052604090205490565b61010f610191366004610f2b565b610308565b61019e610326565b6040516100df9796959493929190610f46565b6100d26103af565b6100fb6101c7366004610ec5565b6103be565b6100fb6101da366004610ec5565b61043e565b6101f26101ed366004610fdc565b61044c565b005b61010f61020236600461104f565b6105b0565b60606003805461021690611082565b80601f016020809104026020016040519081016040528092919081815260200182805461024290611082565b801561028f5780601f106102645761010080835404028352916020019161028f565b820191906000526020600020905b81548152906001019060200180831161027257829003601f168201915b5050505050905090565b6000336102a781858561060f565b60019150505b92915050565b6000336102c1858285610733565b6102cc8585856107ad565b506001949350505050565b60006102e1610951565b905090565b6000336102a78185856102f983836105b0565b61030391906110b6565b61060f565b6001600160a01b0381166000908152600760205260408120546102ad565b60006060808280808361035a7f00000000000000000000000000000000000000000000000000000000000000006005610a7c565b6103857f00000000000000000000000000000000000000000000000000000000000000006006610a7c565b60408051600080825260208201909252600f60f81b9b939a50919850469750309650945092509050565b60606004805461021690611082565b600033816103cc82866105b0565b9050838110156104315760405162461bcd60e51b815260206004820152602560248201527f45524332303a2064656372656173656420616c6c6f77616e63652062656c6f77604482015264207a65726f60d81b60648201526084015b60405180910390fd5b6102cc828686840361060f565b6000336102a78185856107ad565b8342111561049c5760405162461bcd60e51b815260206004820152601d60248201527f45524332305065726d69743a206578706972656420646561646c696e650000006044820152606401610428565b60007f6e71edae12b1b97f4d1f60370fef10105fa2faae0126114a169c64845d6126c98888886104cb8c610b20565b6040805160208101969096526001600160a01b0394851690860152929091166060840152608083015260a082015260c0810186905260e001604051602081830303815290604052805190602001209050600061052682610b48565b9050600061053682878787610b75565b9050896001600160a01b0316816001600160a01b0316146105995760405162461bcd60e51b815260206004820152601e60248201527f45524332305065726d69743a20696e76616c6964207369676e617475726500006044820152606401610428565b6105a48a8a8a61060f565b50505050505050505050565b6001600160a01b03918216600090815260016020908152604080832093909416825291909152205490565b60006020835110156105f7576105f083610b9d565b90506102ad565b81610602848261113b565b5060ff90506102ad565b90565b6001600160a01b0383166106715760405162461bcd60e51b8152602060048201526024808201527f45524332303a20617070726f76652066726f6d20746865207a65726f206164646044820152637265737360e01b6064820152608401610428565b6001600160a01b0382166106d25760405162461bcd60e51b815260206004820152602260248201527f45524332303a20617070726f766520746f20746865207a65726f206164647265604482015261737360f01b6064820152608401610428565b6001600160a01b0383811660008181526001602090815260408083209487168084529482529182902085905590518481527f8c5be1e5ebec7d5bd14f71427d1e84f3dd0314c0f7b2291e5b200ac8c7c3b925910160405180910390a3505050565b600061073f84846105b0565b905060001981146107a7578181101561079a5760405162461bcd60e51b815260206004820152601d60248201527f45524332303a20696e73756666696369656e7420616c6c6f77616e63650000006044820152606401610428565b6107a7848484840361060f565b50505050565b6001600160a01b0383166108115760405162461bcd60e51b815260206004820152602560248201527f45524332303a207472616e736665722066726f6d20746865207a65726f206164604482015264647265737360d81b6064820152608401610428565b6001600160a01b0382166108735760405162461bcd60e51b815260206004820152602360248201527f45524332303a207472616e7366657220746f20746865207a65726f206164647260448201526265737360e81b6064820152608401610428565b6001600160a01b038316600090815260208190526040902054818110156108eb5760405162461bcd60e51b815260206004820152602660248201527f45524332303a207472616e7366657220616d6f756e7420657863656564732062604482015265616c616e636560d01b6064820152608401610428565b6001600160a01b03848116600081815260208181526040808320878703905593871680835291849020805487019055925185815290927fddf252ad1be2c89b69c2b068fc378daa952ba7f163c4a11628f55a4df523b3ef910160405180910390a36107a7565b6000306001600160a01b037f0000000000000000000000000000000000000000000000000000000000000000161480156109aa57507f000000000000000000000000000000000000000000000000000000000000000046145b156109d457507f000000000000000000000000000000000000000000000000000000000000000090565b6102e1604080517f8b73c3c69bb8fe3d512ecc4cf759cc79239f7b179b0ffacaa9a75d522b39400f60208201527f0000000000000000000000000000000000000000000000000000000000000000918101919091527f000000000000000000000000000000000000000000000000000000000000000060608201524660808201523060a082015260009060c00160405160208183030381529060405280519060200120905090565b606060ff8314610a8f576105f083610be0565b818054610a9b90611082565b80601f0160208091040260200160405190810160405280929190818152602001828054610ac790611082565b8015610b145780601f10610ae957610100808354040283529160200191610b14565b820191906000526020600020905b815481529060010190602001808311610af757829003601f168201915b505050505090506102ad565b6001600160a01b03811660009081526007602052604090208054600181018255905b50919050565b60006102ad610b55610951565b8360405161190160f01b8152600281019290925260228201526042902090565b6000806000610b8687878787610c1f565b91509150610b9381610cd9565b5095945050505050565b600080829050601f81511115610bc8578260405163305a27a960e01b81526004016104289190610e8f565b8051610bd3826111fa565b179392505050565b505050565b60606000610bed83610e21565b604080516020808252818301909252919250600091906020820181803683375050509182525060208101929092525090565b6000806fa2a8918ca85bafe22016d0b997e4df60600160ff1b03831115610c4c5750600090506003610cd0565b6040805160008082526020820180845289905260ff881692820192909252606081018690526080810185905260019060a0016020604051602081039080840390855afa158015610ca0573d6000803e3d6000fd5b5050604051601f1901519150506001600160a01b038116610cc957600060019250925050610cd0565b9150600090505b94509492505050565b6000816004811115610ced57610ced61121e565b03610cf55750565b6001816004811115610d0957610d0961121e565b03610d515760405162461bcd60e51b815260206004820152601860248201527745434453413a20696e76616c6964207369676e617475726560401b6044820152606401610428565b6002816004811115610d6557610d6561121e565b03610db25760405162461bcd60e51b815260206004820152601f60248201527f45434453413a20696e76616c6964207369676e6174757265206c656e677468006044820152606401610428565b6003816004811115610dc657610dc661121e565b03610e1e5760405162461bcd60e51b815260206004820152602260248201527f45434453413a20696e76616c6964207369676e6174757265202773272076616c604482015261756560f01b6064820152608401610428565b50565b600060ff8216601f8111156102ad57604051632cd44ac360e21b815260040160405180910390fd5b6000815180845260005b81811015610e6f57602081850181015186830182015201610e53565b506000602082860101526020601f19601f83011685010191505092915050565b602081526000610ea26020830184610e49565b9392505050565b80356001600160a01b0381168114610ec057600080fd5b919050565b60008060408385031215610ed857600080fd5b610ee183610ea9565b946020939093013593505050565b600080600060608486031215610f0457600080fd5b610f0d84610ea9565b9250610f1b60208501610ea9565b9150604084013590509250925092565b600060208284031215610f3d57600080fd5b610ea282610ea9565b60ff60f81b881681526000602060e081840152610f6660e084018a610e49565b8381036040850152610f78818a610e49565b606085018990526001600160a01b038816608086015260a0850187905284810360c0860152855180825283870192509083019060005b81811015610fca57835183529284019291840191600101610fae565b50909c9b505050505050505050505050565b600080600080600080600060e0888a031215610ff757600080fd5b61100088610ea9565b965061100e60208901610ea9565b95506040880135945060608801359350608088013560ff8116811461103257600080fd5b9699959850939692959460a0840135945060c09093013592915050565b6000806040838503121561106257600080fd5b61106b83610ea9565b915061107960208401610ea9565b90509250929050565b600181811c9082168061109657607f821691505b602082108103610b4257634e487b7160e01b600052602260045260246000fd5b808201808211156102ad57634e487b7160e01b600052601160045260246000fd5b634e487b7160e01b600052604160045260246000fd5b601f821115610bdb57600081815260208120601f850160051c810160208610156111145750805b601f850160051c820191505b8181101561113357828155600101611120565b505050505050565b81516001600160401b03811115611154576111546110d7565b611168816111628454611082565b846110ed565b602080601f83116001811461119d57600084156111855750858301515b600019600386901b1c1916600185901b178555611133565b600085815260208120601f198616915b828110156111cc578886015182559484019460019091019084016111ad565b50858210156111ea5787850151600019600388901b60f8161c191681555b5050505050600190811b01905550565b80516020808301519190811015610b425760001960209190910360031b1b16919050565b634e487b7160e01b600052602160045260246000fdfea26469706673582212202b782f5237f28155a7d6d49f0c0525f9c0c880559c7a412cf942ffc6d4bffdae64736f6c63430008110033",
  "linkReferences": {},
  "deployedLinkReferences": {}
}